:10000000D0280000000000000B113C308100B40A31
:1000100028303402031D0900B401B00A0A3030024E
:10002000031D0900B001B10A0A303102031D0900A5
:10003000B101B20A0A303202031D0900B201B30A4B
:100040000A303302031D0900B30100000000000064
:1000500000000000000000000000000000000000A0
:100060000000000000000000000000000000000090
:100070000000000000000000000000000000000080
:100080000000000000000000000000000000000070
:100090000000000000000000000000000000000060
:1000A0000000000000000000000000000000000050
:1000B0000000000000000000000000000000000040
:1000C0000000000000000000000000000000000030
:1000D0000000000000000000000000000000000020
:1000E0000000000000000000000000000000000010
:1000F0000000000000000000000000000000000000
:1001000000000000000000000000000000000000EF
:1001100000000000000000000000000000000000DF
:1001200000000000000000000000000000000000CF
:1001300000000000000000000000000000000000BF
:1001400000000000000000000000000000000000AF
:10015000000000000000000000000000000000009F
:10016000000000000000000000000000000000008F
:10017000000000000000000000000000000000007F
:10018000000000000000000000000000000000006F
:10019000000000000000000000000000000000005F
:1001A00086308400800188308400800181308400A2
:1001B000001480140015801180123C3081008B17D0
:1001C0008B163008F6208600081408103108F62037
:1001D0008600881488103208F62086000815081159
:1001E0003308F620860088158811E12882073F34FD
:1001F00006345B344F3456345D347D3407347F34F9
:02020000573471
:02400E00713F00
:00000001FF
